:020000040800F2
:10000000E046002029020008B9150008490300084D
:10001000B5150008FD050008511900080000000092
:100020000000000000000000000000003B0200088B
:10003000010600080000000097020008BD15000836
:10004000430200084302000843020008430200087C
:10005000430200084302000843020008430200086C
:10006000430200084302000843020008430200085C
:10007000430200084302000843020008430200084C
:10008000430200084302000843020008430200083C
:10009000430200084302000843020008430200082C
:1000A0004302000819170008430200084302000831
:1000B000430200084302000843020008430200080C
:1000C00043020008430200084302000843020008FC
:1000D00043020008430200084302000843020008EC
:1000E00043020008430200084302000843020008DC
:1000F00043020008430200084302000843020008CC
:1001000043020008430200084302000843020008BB
:1001100043020008430200084302000843020008AB
:10012000430200084302000843020008430200089B
:10013000430200084302000843020008430200088B
:10014000430200084302000843020008430200087B
:10015000430200084302000843020008430200086B
:10016000430200084302000843020008430200085B
:100170004302000843020008430200080000000098
:10018000430200084302000800F002F800F03CF8C7
:100190000AA090E8000C82448344AAF10107DA45E2
:1001A00001D100F031F8AFF2090EBAE80F0013F0F8
:1001B000010F18BFFB1A43F001031847083F000066
:1001C000283F0000103A24BF78C878C1FAD85207F7
:1001D00024BF30C830C144BF04680C6070470000C1
:1001E0000023002400250026103A28BF78C1FBD840
:1001F000520728BF30C148BF0B6070471FB503F0DE
:1002000071FE1FBD10B510BD00F094F91146FFF747
:10021000F5FF00F0C9F900F0B2F903B4FFF7F2FFFF
:1002200003BC00F0B9F900000948804709480047BD
:10023000FEE7FEE7FEE7FEE7FEE7FEE7FEE7FEE796
:10024000FEE7FEE704480549054A064B70470000F3
:100250000517000889010008E0400020E046002062
:10026000E0420020E0420020EFF3108072B67047B9
:1002700080F310887047424A1368012B04D04FF076
:10028000010313603F4A10603F4A11603F484FF03E
:10029000805101607047EFF3108272B638480168F0
:1002A00051B34FF0000101603648016891B1EFF39E
:1002B00009811EF0100F08BF21ED108B21E9F00F0E
:1002C0004FF000041EF0100F08BF012441F8044D48
:1002D000006801602C490968096808C9B1E8F00F95
:1002E000002B18BFB1EC108B81F309884EF0100E73
:1002F000002B18BF2EF0100E82F310884EF0040E63
:10030000704721490860EFF3148222F0040282F35F
:1003100014881C494FF00000086019494FF0010093
:1003200008601B481B49D0F8002041EA0201016027
:1003300016484FF08051016017480068006880F34C
:10034000088861B662B670471EF0040F0CBFEFF369
:100350000880EFF3098020E9F00F40F804ED40F841
:1003600004ED1EF0040F0CBF80F3088880F30988A9
:1003700000B501F065FF5DF804EB4EF0040E704728
:10038000D0400020443E00204C3E002004ED00E020
:1003900020ED00E00000FFFF08ED00E053EA020C52
:1003A00000F069802DE9F04B4FF00006002B1FBFD5
:1003B000B3FA83F503FA05F424FA05F65E4012BF9A
:1003C0001643B2FA82F502FA05F4C5F120051EBF04
:1003D00022FA05FC44EA0C04203556EA044C4FEAA4
:1003E000144418BF641C4FF000084FF000099042FD
:1003F00071EB030C39D3002919BFB1FA81F701FA67
:1004000007F6B0FA80F700FA07F6C7F120071EBF1B
:1004100020FA07FC46EA0C062037B6FBF4FCA7EBF3
:100420000507103F07F01F0BCBF120062CFA06F64C
:100430000CFA0BFB44BFB3460026202FA4BF5E4638
:100440004FF0000B5BEA060C08BF4FF0010B19EBF5
:100450000B0948EB0608ABFB027C06FB02CC0BFB4E
:1004600003CCC01B71EB0C01C1E70B4602464146B1
:100470004846BDE8F08B13B5084318BF4FF0FF3076
:100480000146AFF30080BDE81C40704702F0FF0357
:1004900043EA032242EA024200F002B84FF00002AF
:1004A0000429C0F0128010F0030C00F01E80CCF183
:1004B000040CBCF1020F18BF00F8012BA8BF20F8F4
:1004C000022BA1EB0C0100F010B85FEAC17C24BF45
:1004D00000F8012B00F8012B48BF00F8012B7047F2
:1004E0007047704770474FF0000200B513469446BE
:1004F0009646203922BFA0E80C50A0E80C50B1F17C
:100500002001BFF4F7AF090728BFA0E80C5048BF8F
:100510000CC05DF804EB890028BF40F8042B08BF2D
:10052000704748BF20F8022B11F0804F18BF00F829
:10053000012B7047754600F02BF8AE460500694662
:10054000534620F00700854618B020B5FFF77AFE25
:10055000BDE820404FF000064FF000074FF00008C4
:100560004FF0000BAC46ACE8C009ACE8C009ACE801
:10057000C009ACE8C00921F007018D46704710B5ED
:100580000446AFF300802046BDE81040FFF745BEAB
:10059000004870474000002001491820ABBEFEE72C
:1005A000260002007047000080B582B0FFF75CFEB5
:1005B00001F0F6FD02F096FA02F058FC02F0A8FBFA
:1005C0000A20009044F2160041F645214FF0140C29
:1005D000C0F60000C0F6000100224FF48063CDF8A1
:1005E00004C002F04DFC02F0DFFD02F047FC02F017
:1005F000FDFC02F023FC002002B080BDFEE70000FD
:10060000704700002DE9F04F82B000F13E4241F604
:10061000004502F1FF77C4F20205082243F6004EBE
:100620004FEAB726A84208BF0722C4F2010E072EE0
:1006300038BF4FEAB7220125002600274FF00008F7
:10064000009208E008F101080437B8F1100F06F134
:10065000020600F0A7800C6805FA08F914EA090FF1
:10066000F0D0D1F804B003220BF0030CACF101047C
:10067000B240012C6FEA020A10D88268CC6802EA04
:100680000A02B440224382604268CBF3001422EA9B
:10069000090204FA08F42243426005E0BCF1030FAA
:1006A00002D14FF0030C20E0C2688C6802EA0A0213
:1006B000B4402243BCF1020FC26016D16FF00302B6
:1006C00002EA58020244D2F820C007F01C050F23AA
:1006D0000C69AB402CEA030304FA05F52B431362C3
:1006E000D1F804B001250BF0030C02680CFA06F3F4
:1006F00002EA0A021A431BF4403F0260A2D0002221
:1007000043F644030192C4F202031A684FF6084C00
:1007100042F480421A601A68CFF6FF7C02F48042ED
:100720000192019A28F00302724452F80C3007F04B
:100730000C050F24AC40A343009C04FA05F52B43A1
:1007400042F80C30DEF808204B6842EA090543F60F
:100750000C4CDC0258BF22EA0905CEF80850C4F25E
:10076000010CDCF800209C0242EA090558BF22EA8D
:100770000905CCF80050DEF804209C0342EA090584
:1007800058BF22EA0905CEF80450DEF80020DB034A
:1007900042EA090558BF22EA0905CEF800500125B2
:1007A00050E700BF02B0BDE8F08F0000426902EAE6
:1007B0000103914341EA034181617047002A08BF68
:1007C000090481617047000044F2D800C2F20000C1
:1007D0000068704740F2000044F2D801C2F2000005
:1007E000C2F2000100780A681044086070470000F7
:1007F00080B543F60040C4F20200016841F4007184
:100800000160016841F480610160016841F4807118
:100810000160032000F0BCF80F2000F005F800F0A4
:100820005BF8002080BD0000B0B586B0002543F61F
:1008300044010195C4F202010A68044642F0010233
:100840000A60096801A801F0010101910199694656
:1008500000F05EF900F096F94DF68361C4F21B31A9
:10086000A0FB01014FF0FF3000EB914140F23C1042
:100870000022C2F20000C4F2010240F2E733C0E9F4
:100880000021C0E902530561856100F099FB05462E
:1008900010B1284606B0B0BD40F23C10C2F20000D4
:1008A00000F0BEFB05460028F3D1192000F030F817
:1008B0000F2C0DD8192021460022002500F03CF80D
:1008C00040F20400C2F200000460284606B0B0BD49
:1008D0000125284606B0B0BD82B0002043F6400195
:1008E0000190C4F202014A6842F480424A604A68B8
:1008F00002F480420192019A0090086840F0805012
:100900000860086800F080500090009802B07047BE
:10091000002848BF7047C1B200F01F00012202FA50
:1009200000F04EF20012CEF2000242EAD10121F0B4
:10093000030108607047000010B54EF60C5CCEF263
:10094000000CDCF80030C3F3022E8EF00704042CF8
:1009500028BF0424BEF103034FF0FF3E0EFA04F457
:1009600038BF0023A14399400EFA03F39A43114381
:1009700000F00F0200F160430901043A03F56443FB
:100980006244002848BF02F10C03197010BD00003A
:100990004EF60C51CEF200010A684FF6FF031A40E2
:1009A00060F30A2242F0806040F0FD7008607047FA
:1009B0002DE9F041002800F08B8043F60808C4F2CE
:1009C00002080446D8F8F8030D4600F007008842F4
:1009D00007D288F8F853D8F8F80300F00700A842C7
:1009E00076D12068810717D5410705D5D8F80010C2
:1009F00041F4E051C8F80010010705D5D8F80010FF
:100A000041F46041C8F80010D8F80010A26821F045
:100A1000F0011143C8F80010C0073FD1D8F8F8031F
:100A200000F00700A84207D988F8F853D8F8F8036F
:100A300000F00700A8424BD12068410707D5D8F83D
:100A40000010E26821F4E0511143C8F800100007DB
:100A500008D5D8F80000216920F4604040EAC100C0
:100A6000C8F8000000F0A2F8D8F8001043F6FE62C3
:100A7000C1F30311C0F60002515C40F2080220FAF3
:100A800001F140F20400C2F200000068C2F200026C
:100A90001160FFF7C9FE0020BDE8F0816068811E8B
:100AA000022907D258F8081C89015CBF0120BDE863
:100AB000F08111E0012807D158F8081C89035CBFB8
:100AC0000120BDE8F08107E058F8081C890703D42D
:100AD0000120BDE8F08100BFD8F8001021F003012B
:100AE0000843C8F80000FFF76FFE064641F288375A
:100AF000D8F80000616800F00C00B0EB810F8DD0D9
:100B0000FFF762FE801BB842F2D90320BDE8F081F6
:100B10000F22026043F60802C4F20202136803F0D7
:100B200003034360136803F0F0038360136803F466
:100B3000E053C360D2F800C04FF4E05303EADC0393
:100B40000361D2F8F80300F0070008607047000066
:100B500040F20800C2F200000068704740F208004E
:100B600043F60801C2F20000C4F2020100680968FD
:100B700043F60E72C1F38221C0F60002515CC840F8
:100B80007047000040F2080043F60801C2F200007E
:100B9000C4F202010068096843F60E72C1F34231E3
:100BA000C0F60002515CC8407047000010B543F623
:100BB0000404C4F20204606800F00C0008280BD0A2
:100BC000042819BF42F20040C0F2F40047F640008A
:100BD000C0F27D1010BD00BF206821682368490263
:100BE00047F64001C0F27D1100F03F02C3F38810C8
:100BF0005CBF42F20041C0F2F401A1FB00010023FE
:100C0000FFF7CCFB21680222C1F3014102EB410155
:100C1000B0FBF1F010BD00002DE9F04182B00028DA
:100C200068D00446007843F60006C007C4F2020606
:100C30000BD0B06800F00C00042840F09F803068B2
:100C4000800302D56068002854D0207880071AD528
:100C5000B06810F00C0F09D0B06800F00C00082844
:100C600040F0A6807068400200F1A28030688007E2
:100C700002D5E06801283DD13068216920F0F800F4
:100C800040EAC10030602078000737D42078400760
:100C90004CD4A56955B3B06800F00C00082840F0AA
:100CA000BB80012D26D07068E16900F480028A4281
:100CB00020D1216A00F03F028A421BD147F6C07161
:100CC000626A0140B1EB821F14D1A16A4FF6FF7333
:100CD000C903994300F44032A1F580318A4209D119
:100CE000E16A00F07060B0EB016F03D1002002B048
:100CF000BDE8F081012002B0BDE8F0816069002804
:100D000040F20000C4F2472076D00121C0F8801ED6
:100D1000FFF75AFD054600BF706F8007B6D4FFF796
:100D200053FD401B0228F7D9DDE000BF306C10F006
:100D300080580AD100200190306C40F0805030641F
:100D4000306C00F080500190019847F20007C4F227
:100D500000073868C00541D4386840F480703860B6
:100D6000FFF732FD054600BF3868C00536D4FFF7EF
:100D70002BFD401B0228F7D9B5E000BFB06800F09A
:100D80000C00082803D1706840023FF558AF606836
:100D9000B0F5803F07D0B0F5A02F40F08D803068CF
:100DA00040F480203060306840F4803030608DE066
:100DB000E068002852D00020C4F2472001210160E1
:100DC000FFF702FD054600BF306880073FF554AFCE
:100DD000FFF7FAFC401B0228F6D984E0A06801283E
:100DE00005D005284ED1306F40F004003067306FD9
:100DF00040F0010030674FE00021C0F8801EFFF78F
:100E0000E3FC0546706F80077FF540AFFFF7DCFC21
:100E1000401B0228F6D966E00027C4F247270020CD
:100E20003866FFF7D1FC022D05460BD130688001F2
:100E30005ED5FFF7C9FC401B02284FF00300F5D92F
:100E400055E700BF306880017FF550AFFFF7BCFC6D
:100E5000401B02284FF00300F4D948E70020C4F2F9
:100E6000472000210160FFF7AFFC0546306880078E
:100E70007FF509AFFFF7A8FC401B02284FF00300E5
:100E8000F4D934E7316F002821F001013167316F67
:100E900021F0040131674DD0FFF796FC054641F281
:100EA000883700BF306F800756D4FFF78DFC401B9A
:100EB000B842F7D917E000BF3168002821F480312B
:100EC0003160316821F4802131604FD0FFF77CFC24
:100ED000054600BF306880033FF5B7AEFFF774FCEE
:100EE000401B6428F6D9032002B0BDE8F08100BFA2
:100EF00004F11C052FCD084340EA8210D9034FF6B8
:100F0000FF729143A1F5803140EA056008437060AB
:100F100001203866FFF758FC044600BF30688001A6
:100F20003FF5E4AEFFF750FC001B02284FF0030032
:100F3000F4D9DCE6FFF748FC054641F2883700BFEC
:100F4000306F800708D5FFF73FFC401BB8424FF0D9
:100F50000300F5D9CBE600BFB8F1000F7FF499AEDE
:100F6000306C20F08050306493E600BFFFF72CFC1B
:100F7000054600BF306880037FF567AEFFF724FCAD
:100F8000401B64284FF00300F4D9B0E6411E002056
:100F9000B0EB116F1CBF012070474EF21002CEF271
:100FA000000251604EF62351CEF20001F0230B7087
:100FB0000721906011607047704700007047000083
:100FC000002804BF0120704710B5044690F83D008A
:100FD00028B9002084F83C00204600F01FF80220C9
:100FE00084F83D002068211D00F09CFB012084F85E
:100FF000460084F83E0084F83F0084F8400084F8FE
:10100000410084F8420084F8430084F8440084F8E6
:10101000450084F83D00002010BD0000704700002E
:1010200090F83D1001291CBF01207047022180F873
:101030003D10006841F2FF72C168C4F200029042A4
:1010400041F00101C1600DDC40F2FF71C4F200010A
:10105000884215DCB0F1804F2AD040F20041C4F242
:10106000000123E040F2FF31C4F20101884213DCA9
:1010700041F60001C4F20001884219D0002113E0BA
:1010800040F60001C4F20001884211D040F6004150
:10109000C4F200010AE000BF44F20001C4F2010101
:1010A000884205D040F20041C4F20101884206D1D5
:1010B000816801F00701062904BF0020704701681C
:1010C00041F00101016000207047000070470000FE
:1010D00010B5016804460869800744BFC8685FEA24
:1010E000807039D40869400744BFC8685FEA40701F
:1010F0003ED40869000744BFC8685FEA007045D461
:101100000869C00644BFC8685FEAC0604AD408697D
:10111000C0071CBFC8685FEAC07051D108690006EB
:1011200044BFC8685FEA006052D40869400644BF03
:10113000C8685FEA406053D40869800646BFC86843
:101140005FEA806010BD6FF0200220460A61BDE8B2
:101150001040FFF733BF00BF6FF0020008610120AD
:1011600020778869800743D02046FFF7AFFF45E02E
:101170006FF00400086102202077886910F4407F36
:1011800040D02046FFF7A2FF42E000BF6FF008000A
:10119000086104202077C86980073DD02046FFF70A
:1011A00095FF3FE06FF01000086108202077C869C4
:1011B00010F4407F3AD02046FFF788FF3CE000BFA4
:1011C0006FF001000861204600F03EF82168A5E7B5
:1011D0006FF0800008612046FFF7EEFE2168A4E76B
:1011E0006FF040000861204600F038F82168A3E75E
:1011F000204600F025F8204600F024F82168002061
:1012000020776FE7204600F01BF8204600F01AF820
:101210002168002020776CE7204600F011F8204676
:1012200000F010F821680020207769E7204600F0E0
:1012300007F8204600F006F821680020207766E7CE
:10124000704700007047000000680021C4F20101EF
:10125000884218BF7047FFF7BDBA00007047000012
:10126000002804BF0120704710B5044690F83D00E7
:1012700028B9002084F83C00204600F021F8242002
:1012800084F83D002068C16821F40051C160204607
:1012900000F0E6FA2068016921F49041016141699A
:1012A00021F02A014161C16841F40051C160002070
:1012B0002021206484F83D1084F83E1010BD000009
:1012C00080B586B0016844F20040C4F2000081425B
:1012D00002D006B080BD00BF002143F6300201916C
:1012E000C4F20202136900F5E43043F400331361E1
:1012F000136903F400330193019B0191136843F0D8
:1013000008031360126802F008020192019A602239
:1013100001920222CDE902210321049107210591C6
:1013200001A9FFF76FF906B080BD00002DE9F04379
:1013300081B0044690F83D0020280DD10F460029C9
:101340004FF0010000F0DD801646002A00F0D98041
:1013500094F83C00012803D1022001B0BDE8F083DD
:10136000012084F83C000020206421201D4684F8E0
:101370003D00FFF729FAA684E684A1680646B1F588
:10138000805F03D12069002800F01081B846002753
:10139000002084F83C00E18C2068002900F0908057
:1013A00005F101090DE000BFB8F1000F28D018F8D1
:1013B000011B4160E18C0139E184E18C002900F0DE
:1013C0007F8001680906EFD4B9F1000F0AD0FDB1A2
:1013D000FFF7FAF9801BA8421AD8206801680906AD
:1013E000F6D5E1E701680906DED4016809065CBFAD
:1013F00001685FEA0161D7D401680906F2D5D3E735
:1014000037F8021B4FF000086FF35F21D1E700BFF0
:10141000206850E8030F216820F4D07041E80302EF
:10142000BAB3206850E8030F216820F4D07041E877
:10143000030272B3206850E8030F216820F4D070D3
:1014400041E803022AB3206850E8030F216820F422
:10145000D07041E80302002ADAD11AE0206850E88F
:10146000050F216820F0010041E80502DAB120688B
:1014700050E8050F216820F0010041E8050292B113
:10148000206850E8050F216820F0010041E80502BE
:101490004AB1206850E8050F216820F0010041E8BA
:1014A0000502002ADAD1202084F83D0084F83E00AD
:1014B000002084F83C00032001B0BDE8F08300BFA9
:1014C0000168490619D4FDB1691C0DD101684906AE
:1014D00013D4016849065CBF01685FEA41610CD41E
:1014E00001684906F2D508E0FFF76EF9801BA842B3
:1014F0000AD8206800684006F6D5202084F83D0010
:10150000002001B0BDE8F083206850E8030F216897
:1015100020F4D07041E80302E2B3206850E8030FE2
:10152000216820F4D07041E803029AB3206850E8A3
:10153000030F216820F4D07041E8030252B3206801
:1015400050E8030F216820F4D07041E80302002A1C
:10155000DAD11FE0206850E8050F216820F0010073
:1015600041E80502002A9ED0206850E8050F216856
:1015700020F0010041E80502002A3FF494AF206802
:1015800050E8050F216820F0010041E80502002A1B
:101590003FF489AF206850E8050F216820F0010072
:1015A00041E80502002AD5D17DE700BF4FF00008D1
:1015B000EEE60000FEE70000FEE7000080B500F068
:1015C00033FF01F0A7FEBDE8804000F03BBF000004
:1015D000B0B592B0002443F640000B94CDE9094425
:1015E000CDE907440594CDE90344CDE901440094D5
:1015F000C4F202000168022541F0805101600068D8
:1016000000F080500090009847F200000094C4F26F
:101610000000016841F480410160006800F48040EE
:10162000009000980120099010200A9008200E9048
:101630004020CDE90F050420119006A80695CDE9BC
:101640000C54FFF7E9FA28B1EFF3108072B600BF2F
:10165000FEE700BF0F20CDE901054FF48050CDE932
:10166000040401A802210394FFF7A2F920B1EFF3CB
:10167000108072B6FEE700BF12B0B0BD80B543F671
:101680000400C4F20200416801F00C0242F2004181
:10169000082AC0F2F40107D0042A21D147F64001FC
:1016A000C0F27D111CE000BFD0F800C003680268E2
:1016B00003F03F03C2F3881E5FEA4C2247F6400264
:1016C000C0F27D1258BF0A46B2FBF3F10268022352
:1016D000C2F301420EFB01F103EB4202B1FBF2F156
:1016E00040F20802C2F200021160406843F6FE6355
:1016F000C0F30310C0F60003185C21FA00F010607C
:1017000080BD00004EF68850CEF20000016841F422
:10171000700101607047000040F23C10C2F200000E
:10172000FFF7D6BC10B540F6FF3E0368C4F2000ECA
:1017300040F2004C7045C4F2010C27DCB0F1804F40
:1017400031D040F20042C4F2000290422BD040F669
:101750000002C4F20002904225D041F6FF72C4F2AA
:101760000002904229DC70453CDCB0F1804F5FD034
:1017700040F20042C4F20002904259D040F600020A
:10178000C4F20002904253D056E000BF40F600423F
:10179000C4F20002904206D0604504D00022C4F298
:1017A00001029042D9D14A6823F07003134341F6F5
:1017B000FF72C4F200029042D5DD43F6FF72C4F21C
:1017C0000102904222DC42F20002C4F20002904286
:1017D0002ED00022C4F20102904229D0604527D0C9
:1017E0002AE000BF40F60042C4F2000290421FD03F
:1017F00041F60002C4F20002904219D041F60042C4
:10180000C4F20002904213D016E000BF44F200027E
:10181000C4F2010290420BD044F60002C4F201026D
:10182000904205D044F20042C4F20102904203D13A
:10183000CA6823F44073134323F080024B69D1F844
:1018400000E08C681A430260C46240F48062C0F811
:1018500028E0624504BF096901630121416110BDAF
:1018600010B504460068D4E902C22369016921F475
:10187000405111430161626943EA0C01E36911437C
:10188000C268194349F20C639A431143C16041692C
:10189000A26921F4407141F20043114340F4806297
:1018A000C4F201039A42416102D1FFF76BF901E0F2
:1018B000FFF754F9E16963681922B1F5004FA0FB05
:1018C000020123D15A00DB0FFEF768FD48F21F51D9
:1018D000C5F2EB11A0FB01235A094FF69C73C0F629
:1018E000FF7303F1805302FB0300322303EBC000BC
:1018F000A0FB01014FF4F87000EA111000EB021098
:10190000C1F3421108442168886010BD9A009B0F02
:10191000FEF744FD48F21F51C5F2EB11A0FB012375
:101920005A094FF69C73C0F6FF7302FB0300322383
:1019300003EB0010A0FB0101F02000EA511000EBC6
:101940000210C1F3431108442168886010BD0000F3
:10195000FEE70000002804BF00207047C1B209B1B3
:1019600001200CE010F47F4102D0090A092006E0B2
:1019700010F47F0107BF010E1920090C112043F656
:101980001672C0F60002515C0844704786B000250C
:1019900043F6300005950095C4F20200016841F657
:1019A000004441F0080101600168C4F2020401F042
:1019B00008010091009900950168002241F0800122
:1019C000016000684FF4E05100F080000090009842
:1019D00020464FF4E056FEF7F1FE0120CDE9020566
:1019E00001A9204601960495FEF70CFE40F28410F2
:1019F000A4F5EC31C2F200000C234FF4E13280E890
:101A00002600C0E90355C0E90535C561FFF728FC8C
:101A100020B1EFF3108072B6FEE700BF07A500BF4C
:101A200020464FF40061FEF7C1FE284600F018FD85
:101A30004FF4FA7001F04AFBF2E700BF48656C6CA6
:101A40006F0A0000B0B544F2C00444F2BC00C0F616
:101A50000004C0F60000A04209D244F2BC05C0F662
:101A6000000500BF55F8040B8047A542FAD3BDE836
:101A7000B040FFF78BBF00002DE9F04F8AB0059111
:101A800015990FF2D4464F060FF2E04858BFB04602
:101A9000CE06DDE9134948BF21F00101CE074FF022
:101AA000300A08BF4FF0200A8E070DD40027019797
:101AB000002701250097002A00F09A80CDE9025105
:101AC000CDF810A013E000BFB2F1FF3F06DD4E07D6
:101AD00000F186800E07E9D5202782E001270197D3
:101AE000002702972D27CDE9031A524200974CF6A2
:101AF000CD494FF0000BCCF6CC490DF1180A00BFD0
:101B0000A2FB09561409F50802F00F0705EB850C36
:101B100025460A2B04BFF508A2EB4C0718F80770FE
:101B2000002D0AF80B7049D0A5FB097C04F00F07C3
:101B3000140ACE464FEADC06A14606EB86060A2BBF
:101B400004BF4FEADC09A5EB460718F807500AEB7B
:101B50000B0CB9F1000F59468CF8015032D0A9FB9B
:101B60000E5604F00F05140B5146F708A24607EB7A
:101B700087070A2B04BF4FEAD60AA9EB470518F8D6
:101B80000550BAF1000F8CF802501FD0AAFB0E5678
:101B900004F00F04120CF50805EB85050A2B04BFB1
:101BA000F208AAEB450418F80440F1460BF1040BC7
:101BB000002A8A468CF80340A2D109E00BF1010B00
:101BC00006E000BF0BF1020B02E000BF0BF1030BBC
:101BD000DDF810A0DDE90251DDE913490DE000BF99
:101BE0002B270097002501270197002A7FF466AF75
:101BF00030228DF818204FF0010BDDF814E0CB45B2
:101C00004B46C8BF5B4611F0110FA4EB03025FD037
:101C100006462DB976453CBF00983070013A013632
:101C2000C80631D4551EC0F28D8012F0030700F0B3
:101C30009580764538BF86F800A0012F06F1010097
:101C400040F09680023A0646032DC0F08B80101DAE
:101C5000764506F1010238BF86F800A0724538BF0C
:101C600082F800A0B21C724538BF82F800A0F21CB6
:101C70007245A0F1040038BF82F800A0032806F1E5
:101C80000406E5DC4FF0FF323046CB455EDAA3EBCD
:101C90000B076FEA0B0617F0030703EB060C57D090
:101CA00070453CBF302404705D1E012F00F101041B
:101CB00009D07445A3F102053CBF30262670022FDF
:101CC00000F102046CD12046BCF1030F73D28BE00B
:101CD0000027002AC8BF0127019E3740D71B7A1E64
:101CE00096DB17F0030C51D070453CBF20240470E4
:101CF000BCF1010F00F1010640F00481023F3046C3
:101D0000032A46D33A1D2026704500F1010738BF4B
:101D10000670774538BF3E70871C774538BF3E70E8
:101D2000C71C7745A2F1040238BF3E70032A00F1B8
:101D30000400E9DC4FF0FF320646002D3FF46AAFA5
:101D40006EE700BF30462A46CB45A0DB04464BE099
:101D50001D46BCF1030F2ED246E000BF2A46032DDC
:101D6000BFF475AF4FF0FF32CB45FFF690AFEDE714
:101D7000704538BF80F800A0022F06F1020040F045
:101D8000D180033A0646032DECD360E71746032AB9
:101D9000B8D24FF0FF32002D3FF43CAF40E700BF18
:101DA00003307445A3F103053CBF30232370044680
:101DB000BCF1030F18D33023044600BF744504F16F
:101DC000010038BF2370704538BF0370A01C7045F8
:101DD00038BF0370E01C7045A5F1040538BF0370DF
:101DE000AB4504F10404E9DBB9F1000F35D006A8D6
:101DF000023807E0ABF1040B0BF10403042B04F1F0
:101E000004042AD9744503D200EB0B035B782370DA
:101E1000BBF1020F04F101031EDB73453CBF10F858
:101E20000B701F70BBF1030F04F1020314D3734551
:101E300004D200EB0B0717F8017C1F70BBF1040FF5
:101E400004F1030308D37345D4D200EB0B0717F852
:101E5000027C1F70CEE700BF1C46012A12DB12F085
:101E60000307A2F1010311D074453CBF202020706C
:101E7000012F04F101000DD11A460446032B3ED375
:101E800022E000BF20460AB0BDE8F08F032B36D316
:101E90001AE000BF7045A2F102063CBF2025057084
:101EA000022F04F1020005D132460446032B26D34B
:101EB0000AE000BF03347045A2F103023CBF2027B3
:101EC00007702046032B1AD3013A2023204600BF77
:101ED000704500F1010738BF0370774538BF3B708C
:101EE000871C774538BF3B70C71C7745A2F10402B9
:101EF00038BF3B7012F1020F00F10400E8D30AB0C2
:101F0000BDE8F08F76453CBF20243470BCF1020F51
:101F100000F1020612D1033F3046032AFFF439AF25
:101F2000F0E600BF0336704538BF80F800A0043AE1
:101F30003046032DBFF48BAE14E700BF764503D2C5
:101F40002C462025357025460330043F0646032ADB
:101F5000BFF4D8AE1DE700BF3031323334353637E9
:101F600038396162636465660000000030313233E5
:101F70003435363738394142434445460000000085
:101F8000B0B544F2BC0444F2B400C0F60004C0F69C
:101F90000000A04228BFB0BD44F2B405C0F6000561
:101FA00055F8040B8047A542FAD3B0BD80B5FEF7C3
:101FB0005BF940F2D801C2F200014A8801324A803E
:101FC000BDE88040FEF754B9B0B5FEF74DF940F2D8
:101FD000D805C2F2000569880446481E01B20029EE
:101FE000688005DD2046BDE8B040FEF741B900BF7E
:101FF000002068802046FEF73BF96868002808BF8B
:10200000B0BDFEF731F9698804460029EAD1A86815
:10201000FFF7A0FC421E43F6D060C2F2000050F869
:1020200032106868A1F114038342DBD02A7043F6B2
:1020300048626B60C2F2000212781C3001F10801A4
:1020400032B1FEF718F92046BDE8B040FEF710B9EE
:10205000FEF711F92046BDE8B040FEF709B90000CF
:102060002DE9F041002857D040F2A007C2F2000746
:1020700004467868A0424FD8B868A04298BFBDE82F
:10208000F08107F1180840464FF0FF31A4F10C062B
:1020900000F0B0FC34F80A0C18B13088B0F5F55FE8
:1020A0000AD025A000F0DCF934F80A2C34F80C3CF6
:1020B00028A0314600F0D4F94FF4F55044F80C0C48
:1020C000D7F80CC066453CBFFE60B44654F8082CF7
:1020D00078683D691318F11A294439610FD059887D
:1020E00069B9B9688B420AD09C4504BFFE60B4460A
:1020F0005A6844F8082C5968331A01448B6054F824
:10210000043CC518B54201D0698839B14046BDE8E4
:10211000F04100F045BC00BFBDE8F081B44508BF08
:10212000FD606A6054F8081C084483604046BDE8BE
:10213000F04100F035BC00BF746F20667265652009
:102140006120626164206461746120626C6F636B02
:102150003A0A00006D656D3A203078253038782CC9
:10216000207573656420666C61673A2025642C20B5
:102170006D6167696320636F64653A20307825304C
:1021800034780A0040F24420C2F200007047000098
:1021900040F24420C2F2000000F570507047000089
:1021A00010B5FEF725FBFFF713FAFFF767FAFEF706
:1021B000CFFC44F6D351C1F26201A0FB01018809B2
:1021C000FEF7E4FEFFF7DCFEFFF7DCFF0446FFF757
:1021D000DFFF01462046BDE8104000F03BBD000097
:1021E000F0B581B004460D208DF8030040F2F800F0
:1021F000C2F20000002180F83C10204600F0CEFC26
:10220000E0B140F2F8060546C2F200060DF1030700
:102210000AE000BF3046214601220123FFF786F87D
:10222000013D04F1010409D020780A28F2D130469A
:10223000394601220123FFF779F8EBE701B0F0BD41
:1022400010B540F24021C2F200010968044629B1EC
:1022500004F128008847002808BF10BD616C44F2D3
:10226000A100C0F6000000F0FBF8A16A44F2600093
:10227000C0F6000000F0F4F8E16A44F26D00C0F628
:10228000000000F0EDF8216B44F27A00C0F6000087
:1022900000F0E6F8616B44F28700C0F6000000F041
:1022A000DFF8A16844F29400C0F6000000F0D8F80E
:1022B000E16824A000F0D4F8216926A000F0D0F84D
:1022C000616928A000F0CCF8A1692AA000F0C8F844
:1022D000E1692CA000F0C4F8216A2EA000F0C0F83B
:1022E000616A30A000F0BCF8A16B32A000F0B8F831
:1022F000E16B34A000F0B4F8216C36A000F0B0F827
:10230000207840070AD444F21B00C0F6000000F019
:10231000A7F82078C00613D40CE000BF00F002FF3D
:10232000014644F23500C0F6000000F099F820782C
:10233000C00605D444F25200C0F6000000F090F848
:10234000FEE700BF7230353A203078253038780A01
:10235000000000007230363A203078253038780A94
:10236000000000007230373A203078253038780A83
:10237000000000007230383A203078253038780A72
:10238000000000007230393A203078253038780A61
:10239000000000007231303A203078253038780A59
:1023A000000000007231313A203078253038780A48
:1023B000000000007231323A203078253038780A37
:1023C00000000000206C723A203078253038780AFE
:1023D000000000002070633A203078253038780AF9
:1023E0000000000080B5043222F007024FF0000C1C
:1023F0004BF6EF6E42F844CDCDF6AD6EC2E901EE7C
:10240000C2E903EEC2E905EEC2E907EE4FF0807EB5
:10241000D0631046C2E9091CC2E90BCCC2E90DC366
:10242000C2F840E080BD000080B5FDF71DFF43F617
:102430004861C2F200010A7801320A70BDE88040AA
:10244000FDF716BF80B5FDF70FFF43F64861C2F2F6
:1024500000010A78013A0A70BDE88040FDF708BF24
:1024600083B010B581B043F65064844603A8C2F22D
:1024700000040EC003AB20467F216246009301F0AA
:1024800013F92046FFF7ACFE01B0BDE8104003B0E1
:10249000704700002DE9F04381B000286BD040F276
:1024A000A009C2F200090330D9F8001020F0030798
:1024B0008F4260D809F1180840464FF0FF310C2FC9
:1024C00098BF0C2700F096FAD9F80CE0D9E900C1C2
:1024D000AEEB0103ACEB0704A34249D2CE187288DD
:1024E000706822B903F10C02851ABD4248D2A0429D
:1024F0003ED20E187288736822B900F10C029D1A40
:10250000BD4216D2A34233D2CE187288706822B967
:1025100003F10C02851ABD4232D2A04228D20E1815
:1025200072887368002AD7D100F10C029D1ABD424F
:10253000D2D30446184607F118039D4225D33A44E6
:1025400007F10C038D184FF4F5578F50C5E90104BE
:102550007260686801240CF10C07B84274801CBFDB
:1025600008448260D9E904021844824214E000BFA2
:10257000404600F015FA002001B0BDE8F08300BF2E
:102580001C4607F118039D42D9D201227280D9E975
:102590000423001B10448342C9F8100038BFC9F857
:1025A00014004FF4F5507645308030D1BEF802006B
:1025B00068B3D9F80820964529D0DEF8040001EB6D
:1025C000000EBEF80200002818BF96451DD0DEF8A8
:1025D000040001EB000EBEF80200002818BF96456B
:1025E00013D0DEF8040001EB000EBEF80200002854
:1025F00018BF964509D0DEF8040001EB000EBEF8C6
:102600000200002818BF9645D7D1C9F80CE0404613
:1026100000F0C6F906F10C0001B0BDE8F08300003F
:1026200070B5042A06461BD316F0030018D1C8B2B1
:102630004FF00133102A00FB03F313D3A2F1100C67
:10264000012000EB1C1010F003000DD00128C6E99A
:102650000033B360F36009D106F11000624616E062
:10266000304650E030462EE0304610E00228C6E901
:102670000433B361F36103D106F12000203A06E090
:1026800006F13000303AC6E90833C6E90A33BCF136
:10269000300F16D300F14004403AC0E90033C0E9DE
:1026A0000233C0E90433C0E90633C0E90833C0E9A6
:1026B0000A33C0E90C33C0E90E330F2A2046E9D8AB
:1026C0002046042A1FD30446151F042D40F8043B5E
:1026D00018D3A2F10805042D63600DD3A2F10C05F7
:1026E000042DA3600CD304F11000103AE360032A18
:1026F0000446E9D807E000BF04F1080002E000BF8B
:1027000004F10C002A4622B1CBB211461A46FDF75D
:10271000BDFE304670BD00002DE9F041884640F214
:102720000C01C2F200010A78054682420F460AD027
:102730000F4617F8100FA84205D011F8200FA84235
:1027400018BF00210F46F868FFF7A4FE0646C0B187
:10275000FA68304600210024FFF762FF3046414608
:1027600008223572747200F031FAFDF77DFD57F8DA
:10277000041F324642F80C1F4A603A605760FDF76A
:1027800077FD3046BDE8F08110B504460020207288
:10279000FDF76AFD2246216952F80C3F5960216914
:1027A00022610B601260FDF763FD2046BDE810401A
:1027B000FFF756BC10B5044600202072FDF754FD0B
:1027C00054F80C1F62684A6062681160C4E90044F2
:1027D000BDE81040FDF74CBDF0B581B00E4640F2AB
:1027E0000C01C2F2000115460A780446B2420F46B7
:1027F0000AD00F4617F8100FB04205D011F8200F7D
:10280000B04218BF00210F46FFF7D0FB043738460F
:102810000068B84208D00068B84205D00068B842E5
:1028200002D00068B842F3D1FFF7CEFB46F080003B
:10283000207220462946082200F0C8F9FDF714FD51
:10284000396844F80C1F4C603C60676001B0BDE81B
:10285000F040FDF70DBD0000007AC0097047000090
:10286000B0B5FDF701FD40F2D805C2F20005698858
:10287000044629B12046BDE8B040FDF7F9BC00BFD1
:10288000A868FFF767F843F6D0610138C2F200018B
:1028900051F830106A68A1F114039342EAD028700D
:1028A00043F648606B60C2F20000037802F11C003E
:1028B00001F1080133B1FDF7DEFC2046BDE8B04070
:1028C000FDF7D6BCFDF7D7FC2046BDE8B040FDF7CC
:1028D000CFBC000010B50446FDF7C6FC94F83410D8
:1028E00094F8352001F0F001013184F8341043F6FA
:1028F000D061C2F2000101EBC2014A6840F2D80C7B
:1029000004F11403C2F2000C1360A2614B60A26BCD
:10291000DCF80830616143EA0201CCF80810BDE838
:102920001040FDF7A5BC0000B0B50546FDF79CFCC6
:10293000294651F8142F4B6853604B6849601A6060
:1029400091F8212043F6D0630960C2F2000353F8E6
:10295000324003EBC202944204D0BDE8B040FDF720
:1029600087BC00BF40F2D802C2F20002A96B936894
:1029700023EA01019160BDE8B040FDF779BC000099
:1029800070B515460A4602211C460646FFF724FF8D
:1029900006F11400C6E905000020B583747270BD0D
:1029A000B0B50546FDF760FC2A4652F8141F0446F0
:1029B00091420BD0A1F1140000F090FB2046FDF7EE
:1029C00057FCFFF74DFF0020B0BD00BFA88B4FF6AE
:1029D000FF71884206D12046FDF74AFC6FF00200E5
:1029E000B0BD00BF0130A8832046FDF741FC0020A8
:1029F000B0BD00002DE9F04381B00E4607460091BE
:102A0000FDF732FCB98B804641B1481EB883404681
:102A1000FDF72EFC002001B0BDE8F083D6B300F036
:102A200081FB0546002028637C7A284607F11409BB
:102A300000F0E8FBB4B3012C3CD14846006848459F
:102A400030D095F8351090F8212091421AD30068C3
:102A5000484527D095F8351090F82120914211D3A0
:102A6000006848451ED095F8351090F82120914215
:102A700008D30068484515D095F8351090F8212006
:102A80009142DBD2416805F114020A60A9614260FB
:102A900068610FE04046FDF7EBFB6FF0010001B00D
:102AA000BDE8F083B86905F114010160A861B9615E
:102AB000C5F81490012E09DB05F144066A4630463C
:102AC000002100F005FD304600F068FD4046FDF7AE
:102AD000CFFBFFF7C5FE286B002808BF002001B020
:102AE000BDE8F08380B582B00AA0FFF7B9FC0CA066
:102AF000FFF7B6FC0FF24C0C15A0032101220523B1
:102B0000CDF800C0FFF7ACFC19A002B0BDE88040D2
:102B1000FFF7A6BC0A205C207C202F0A00000000E2
:102B20002D205254202D20202020205468726561D1
:102B300064204F7065726174696E67205379737495
:102B4000656D0A004E6F762020312032303233001E
:102B5000202F207C205C202020202025642E25642E
:102B60002E2564206275696C642025730A000000BC
:102B70002032303036202D203230323020436F70FA
:102B80007972696768742062792072742D74687232
:102B9000656164207465616D0A000000014600BF34
:102BA0000A7862B14A784AB18A785AB1CA7804314F
:102BB000002AF5D10139081A704700BF0131081AFF
:102BC000704700BF0231081A704700002DE9F0413C
:102BD0008046DAB3C2F1000C00234446CF5C08F80B
:102BE0000370DFB10CEB0306771C2FD2CF18787877
:102BF00008EB03056870A8B1B01C27D0B878A8709E
:102C0000B0B1F01C22D0F878E870D8B104330434A5
:102C10001CEB0300A2F10402E0D117E0601C511E7E
:102C20000AD113E0A01C013A511E05D10EE000BFED
:102C3000E01C023A511E09D0FDF730FC4046BDE8C9
:102C4000F08100BF033A281D511EF5D14046BDE872
:102C5000F081000021F003038C46192B014631D38B
:102C6000C81C20F00300A3F1180282422AD310B539
:102C7000191A40F2A004A1F11802C2F20004C4E93A
:102C800000204FF4F5520C394FF0000CC0E9002140
:102C9000C0F808C041F6A060C0F201001A4642F830
:102CA0000C0D43F8081C2068A2600C3043F8040C9B
:102CB00004F1180005A101220023FFF761FE6068FE
:102CC000E06010BD03A06246FFF7CABB6865617093
:102CD000000000006D656D20696E69742C206572BE
:102CE000726F7220626567696E20616464726573D9
:102CF0007320307825782C20616E6420656E642006
:102D00006164647265737320307825780A0000006E
:102D100010B543F6D062C2F2000202F11800C2E917
:102D2000060002F1200002F1080302F11001C2E9DD
:102D3000080002F14000C2E90233C2E9041102F1C5
:102D4000280102F1300302F13804C2E9100002F157
:102D50006000C2E90A11C2E90C33C2E90E4402F173
:102D6000480102F1500302F15804C2E9180002F1CF
:102D70008000C2E91211C2E91433C2E9164402F11B
:102D8000680102F1700302F17804C2E9200002F147
:102D9000A000C2E91A11C2E91C33C2E91E4402F1C3
:102DA000880102F1900302F19804C2E9280002F1BF
:102DB000C00040F2D80EC2E92211C2E92433C2E9B0
:102DC000264402F1A80102F1B00302F1B804C2E9FD
:102DD000300002F1E000C2F2000EC2E92A11C2E99D
:102DE0002C33C2E92E4402F1C80102F1D00302F1F2
:102DF000D804C2E938001F204FF0000CC2E932119C
:102E0000C2E93433C2E9364402F1E80102F1F003C9
:102E100002F1F8048EF800000EF10C00AEF802C0CA
:102E2000C2E90022C2E93A11C2E93C33C2E93E4498
:102E3000CEE901CCCEE9030010BD000010B540F290
:102E4000D804C2F20004A068FEF784FD43F6D06106
:102E5000C2F2000101EBC00050F8080CA0F114010F
:102E600008306160BDE81040FDF74BBA40F2EC005D
:102E7000C2F20000011DC0E9011170477047000057
:102E80002DE9F04383B00F46014601201D4616464A
:102E9000FFF742FC00283DD004462846FFF7FAFA27
:102EA00000283DD004F11401DDE90A98C4E90511B8
:102EB00023212A46C4E90876C4E90A05FFF7B0FBD6
:102EC00004F120030FCB1A4442F63173043AC0F6E2
:102ED0000003FFF787FA43F24922E061002704F17B
:102EE0004400C0F600022146234684F8369084F858
:102EF0003590C4E90E78C4F84080276384F83470B4
:102F0000C4E91C770097019700F02EFB204603B020
:102F1000BDE8F0830024204603B0BDE8F08300BF85
:102F20002046FFF731FC0024204603B0BDE8F083C3
:102F300070B540F2DC00C2F200000568FDF794F9BC
:102F40000446FDF791F9296F064609B128468847DE
:102F50003046FDF78DF92846FFF7E6FC042085F89A
:102F6000340005F1440000F0E7FA2846FFF774FC4E
:102F7000012809D12846FFF71DFCFFF771FC204608
:102F8000BDE87040FDF774B940F2E400C2F2000001
:102F9000016845F8141F4D6005606860FFF760FC2C
:102FA0002046BDE87040FDF763B9000040F2E4063A
:102FB000C2F2000603E000BF2046FDF759F9FDF715
:102FC00053F931680446B142F6D0D1E90020A1F1AD
:102FD000140550604B6848691A60C1E90011FFF799
:102FE0003FF82846FFF7D0FBE6E7000010B584B0B5
:102FF00043F6D0724FF48071C2F2000240F2C8145E
:103000001F20CDE90021C2F2000442F6AD724FF05C
:10301000200C029007A1C0F6000220460023CDF844
:103020000CC000F00BF8204604B0BDE8104000F0E2
:10303000BBB800BF7469646C650000002DE9F047FF
:1030400082B00DF1280A16460A46DDF834909AE857
:10305000800501211D460446FFF7BEFB04F1140064
:10306000C4E90500384623214246C4E90865C4E99D
:103070000A78FFF7D5FA04F120030FCB1A4442F681
:103080003173043AC0F60003FFF7ACF943F249226A
:10309000E061002704F14400C0F600022146234607
:1030A00084F836A084F835A0C4E90E79C4F84090BD
:1030B000276384F83470C4E91C770097019700F007
:1030C00053FA002002B0BDE8F087000080B500F0A0
:1030D00001F900F02DF8002080BD0000B0B50446D5
:1030E00090F8340000F00F0002281CBF4FF0FF30B2
:1030F000B0BDFDF7B9F82246A16952F8143F054664
:103100005960A16904F144000B60A261126000F0F3
:10311000AFFA2846FDF7ACF82046FFF7DBFB0020AE
:10312000B0BD000040F2DC00C2F200000068704751
:10313000F0B581B00090FDF797F840F2DC01C2F2E3
:1031400000010C68054694F8341001F00F010129C4
:1031500013D1FDF789F806462046FFF7E5FB94F802
:10316000340000F0F000023084F8340004F1440030
:1031700000F07EFA3046FDF77BF804F144066A461B
:1031800030460021002700F0A3F9304600F006FA8F
:103190002846FDF76DF8FFF763FB206B023008BF90
:1031A0002763002001B0F0BDB0B5044690F83600AA
:1031B000012184F8350001FA00F0A063022084F8B0
:1031C0003400FDF751F82246A16952F8143F054634
:1031D0005960A16904F144000B60A261126000F023
:1031E00047FA2846FDF744F82046FFF773FB40F204
:1031F000DC00C2F200000068002818BFFFF730FBB7
:103200000020B0BDB0B5044690F8340000F00F00C7
:1032100001281CBF4FF0FF30B0BDFDF725F8054673
:103220002046FFF781FB94F8340000F0F0000230F4
:1032300084F8340004F1440000F01AFA2846FDF73F
:1032400017F80020B0BD000080B50246816952F831
:10325000143F6FF0010C59608169C0F830C00B60F9
:1032600082611260FFF736FBBDE88040FFF7F8BAD5
:1032700010B5FCF7F9FF40F2DC01C2F20001096869
:1032800091F8342002F00F02012A1FD10A4652F8A9
:1032900014CF53689C4519D0CCF8043091F835E030
:1032A00043F6D063C2F2000303EBCE03D1F818E07B
:1032B0008A615C68CEF800C022608C615A604B6104
:1032C000FCF7D6FFFFF7CCFA002010BDFCF7D0FFCB
:1032D000002010BD002844BF4FF0FF30704744F677
:1032E000D351C1F26201A0FB01239A094FF47A7312
:1032F00002FB1300584300F2E730A0FB010102FB80
:1033000003F000EB9110704744F2D400C2F20000C9
:103310000068704780B544F2D400C2F20000016832
:1033200001310160FFF7FEFE016C0139016403D039
:10333000BDE8804000F008B8C16B0164FFF798FF5A
:10334000BDE88040AFF300802DE9F04F85B003AFBA
:10335000CDE90377FFF7D8FF0546FCF785FF40F27C
:10336000EC04C2F20004214651F8048F0190884514
:1033700000F0A8804FF6FE79C7F6FF79201D6FF0A8
:10338000004B02901CE000BF0E6808462168C6F89A
:1033900004800131216018F80B1CC8F80060C0F8E7
:1033A0000080C8F8040041F0010008F80B0C5046FA
:1033B000FCF75EFF204650F8048F804500F08280C5
:1033C000D8F81400281A48457CD8D8E9001048607D
:1033D000D8F8042018F80B0C11608107C8F8008099
:1033E0005CBF00F0FE0008F80B0C0398C0F80480E6
:1033F000C8F80000D8E90210CDF80C80C8F80470B5
:103400008847FFF781FF03990546B942D2D0D8E932
:1034100000014160D8F80410C8F80480086018F86A
:103420000B0CC8F8008000F003010329C2D100F0A2
:10343000FE0008F80B0CFCF717FFD8E900128246D3
:103440004A6018F80B0CD8F8042000F0FE00116058
:10345000C8F80080C8F8048008F80B0CFFF754FF88
:10346000D8F81010029B0A18A168C8F814208B42E3
:103470008AD018684669B61A01D05E451CD38842C6
:103480003FF482AF03685E69B61A01D05E4517D378
:103490008B423FF479AF18684669B61A01D05E4591
:1034A0000AD388423FF470AF03685E69B61ADED073
:1034B0004E451E46DBD869E70646184666E700BF5C
:1034C0001E4663E70198FCF7D3FE05B0BDE8F08F18
:1034D00070B514460E460546FCF7C6FE042E07D806
:1034E000DFE806F0040A1018200000BF21686962B6
:1034F000FCF7BEFE002070BD696A2160FCF7B8FED3
:10350000002070BD697A01F0FD016972FCF7B0FE20
:10351000002070BD697A41F002016972FCF7A8FED3
:10352000002070BD697AC9070CBF0021012121600C
:10353000FCF79EFE002070BD10B50446FCF794FE1B
:103540002246A16952F8143F5960A169A2610B603B
:10355000617A126001F0FE016172FCF789FE20467B
:10356000FFF728F9002010BD2DE9F04115460A4665
:10357000DDE906870A211C460646FFF72DF907F00C
:10358000FE007072002006F11401C6E90511C6E9BB
:103590000754C6E90980BDE8F08100002DE9F0413B
:1035A0000446FCF761FE264656F8141F80467268F2
:1035B00016F80B0C4A60726800F0FE00116036606D
:1035C000766006F80B0CFFF79FFE40F2EC0E3169B7
:1035D000C2F2000EDEF808304FF6FE7C0A180EF13B
:1035E00004076FF00045C7F6FF7C72619F421FD051
:1035F00039684869801A01D0A8421DD3994217D072
:103600000F687869801A01D0A84219D39F420FD061
:1036100039684869801A01D0A84213D3994207D06B
:103620000F687869801AE1D060453846DED80BE033
:103630001868194608E000BF0846394604E000BF94
:10364000384601E00846394646606061607ADEF837
:10365000002040F00100013260724046CEF80020A8
:103660000E60A161FCF704FE0020BDE8F0810000BF
:1036700010B50446407AC00704BF4FF0FF3010BDBC
:10368000FCF7F2FD54F8141F62684A6062686460D7
:10369000116014F80B1C246001F0FE0104F80B1CEF
:1036A000FCF7E6FD002010BD2DE9F04F85B09B46EC
:1036B000144600EB010A4FF020090391002948BF8E
:1036C0004FF0FF3A049002E0411C01340846217893
:1036D000252907D0002900F0CB83504538BF017061
:1036E000F2E700BF0234002114F8012CA2F12007F8
:1036F000102F00F26D801023DFE807F00A6A6A0CD1
:103700006A6A6A6A6A6A6A0E6A126A6A100000BFA6
:10371000082305E0202303E0042301E0012300BF88
:1037200022781943A2F12007102F00F28D80102378
:10373000DFE807F00A8A8A0C8A8A8A8A8A8A8A0ECD
:103740008A128A8A100000BF082305E0202303E0C4
:10375000042301E0012300BF62781943A2F120078E
:10376000102F00F297801023DFE807F00A94940CE2
:10377000949494949494940E94129494100000BF92
:10378000082305E0202303E0042301E0012300BF18
:10379000A2781943A2F12007102F00F28380102392
:1037A000DFE807F010808012808080808080800EAB
:1037B000800A8080140000BF1943043494E700BFDE
:1037C0000423F9E70823F7E72023F5E70123F3E7CC
:1037D000A31E013CA2F13007092F3AD8023400267B
:1037E00006EB860302EB430314F8012CA3F1300629
:1037F000A2F13007092F5DD806EB860302EB4303E5
:103800002278A3F13006A2F13007092F54D806EB35
:10381000860302EB43036278A3F13006A2F130077E
:10382000092F00F28D8006EB860302EB4303A2789A
:10383000A3F13006A2F130030A2B04F10404CFD324
:10384000023C2E2A3AD018E0631EA2F13007092F5D
:10385000C4D92A2A0CD15BF8046B9C1CB6F1FF3F3B
:10386000DCBF764241F0100122782E2A26D004E0F7
:1038700022784FF0FF362E2A20D04FF0FF3E42F044
:1038800004036C2B6CD094460022ACF12505532D1B
:103890006DD9D5E023460134A2F13007092FD8D8DD
:1038A0009CE700BF631C0234A2F13007092F95D9B1
:1038B000CFE700BF013C00BF2E2ADED1234613F81C
:1038C000012FA2F13007092F2ED8A31C002700BF1B
:1038D00007EB870702EB47071A78303FA2F1300564
:1038E000092D35D807EB870702EB47075A78303F99
:1038F000A2F13005092D27D807EB870702EB470710
:103900009A78303FA2F13005092D1FD807EB8707C1
:1039100002EB4707DA78303FA2F130050A2D03F1B8
:103920000403D5D3013B13E02A2A05D114F8022F52
:103930005BF8047B23460BE04FF0FF3708E000BF45
:1039400001342E2ABAD098E7013301E0023300BFD8
:1039500027EAE77E1C4642F004036C2B7FF493AF0A
:1039600014F801CFACF12505532D00F269800A232C
:10397000DFE815F054006600660066006600660029
:103980006600660066006600660066006600660007
:1039900066006600660066006600660066006600F7
:1039A00066006600660066006600660066006600E7
:1039B00066006600660066006600660066006600D7
:1039C00066006600660066006600660066006600C7
:1039D00066006600660066006600780066006600A5
:1039E00066006600660066006600660066006600A7
:1039F0008C005A0066006600660066005A00660089
:103A00006600660066006600A800AC0066006600FE
:103A1000BE0066007B00660066007A0050453CBF31
:103A20002521017050E600BF41F002010A23682AF7
:103A30001DD1BBF800208F0748BF12B21AE000BFAB
:103A4000504503D22521017094F800C0BCF1000F4D
:103A500000F101017AD0514538BF81F800C0811CC6
:103A600033E600BF41F040011023682AE1D06C2A00
:103A7000DBF800200BF1040BCFB25146CDE9006E0C
:103A80000297FDF7F9FF01461FE600BFC9065BD4A8
:103A9000022EA6F10103C0F2818013F00307A6F104
:103AA000020200F0DB80504538BF80F80090012F03
:103AB00000F1010140F0DE801346032A80F004810A
:103AC0001EE100BF0823682AD1D1B2E7721CB2FA06
:103AD00082F24FEA521241EA020108BF08265BF85F
:103AE000042BCFB2CDE9006E51461023C8E700BFCA
:103AF0005BF8048B0FF29C32B8F1000F08BF9046C0
:103B000036B3C6F1000C002218F802300BB30CEBF0
:103B100002035D1C15D008EB02077D78002D00F034
:103B2000B5809D1C0DD0BD78002D00F0B180033311
:103B300007D0FB78002B00F0BD8004321CEB0203A1
:103B4000E2D1324605E000BF0146DAE0013CBCE5C7
:103B5000002272459446C8BFF446BEF1000FD8BF9C
:103B60009446C9061FD46645A6F101021ADDA6EBEC
:103B70000C0111F0030775D0504538BF80F8009054
:103B8000012F00F1010140F08580B21E6FEA0C00A8
:103B90003044032880F0FD8016E100BF01461E4638
:103BA000AFE000BF1646BCF1010FC0F21481ACF1CA
:103BB0000101032904D21CF0030234D10CE100BF3F
:103BC0002CF00302002102E004318A4224D047187D
:103BD00057453CBF18F801303B707B1C53450BD256
:103BE00008EB01056D781D70BB1C534507D3FB1C0A
:103BF0005345E9D20AE000BFBB1C5345F7D208EB9E
:103C00000105AD781D70FB1C5345DDD208EB0107A3
:103C1000FF781F70D8E700BF8844014408461CF0B5
:103C2000030200F0D98050453CBF98F800100170A5
:103C3000012A00F1010100F0CF8051453CBF98F806
:103C400001300B70022A00F1020100F0C5805145DD
:103C50003CBF98F802200A70C11CBDE00146032A4F
:103C600032D24DE001466FEA0C003044032880F068
:103C70009080A9E0514538BF81F80090022F00F1F3
:103C8000020119D1F31E032A1ED239E0013260E786
:103C900002325EE7514538BF81F80090022F00F1F3
:103CA00002016BD1F21E6FEA0C003044032870D27F
:103CB0008AE000BF03324CE7514538BF81F80090DD
:103CC000C11C331F032A1BD3181D00BF514501F12E
:103CD000010238BF81F80090524538BF82F8009049
:103CE0008A1C524538BF82F80090CA1C5245A0F188
:103CF000040038BF82F80090042801F10401E5DCDB
:103D0000002651453CBFDBF800000870022E0BF185
:103D1000040B2FDB043100BFC81E504538BF80F8AC
:103D20000090032EA1F10200FFF4ADAE504538BF64
:103D300080F80090301F10F1040FA1F1010277D834
:103D40005245A0F1010038BF82F8009010F1040F35
:103D50003FF6BBAC5145A0F1010238BF81F800909D
:103D6000043112F1030F00F10106D5D30339FFF737
:103D7000ACBC00BF0131FFF7A8BC00BF514538BF44
:103D800081F80090C11C321F6FEA0C0030440328F8
:103D90001AD3501C514501F1010238BF81F800903F
:103DA000524538BF82F800908A1C524538BF82F8CD
:103DB0000090CA1C5245A0F1040038BF82F8009060
:103DC000844501F10401E5DBACF101060846BCF1D4
:103DD000010FBFF6ECAE014666457FF776ACA6EB69
:103DE0000C0010F0030009D0514538BF81F8009055
:103DF000012801F1010205D1701E13E030460A4688
:103E000010E000BF524538BF82F80090022801F14F
:103E1000020201D1B01E05E0524538BF82F8009081
:103E2000F01ECA1C6FEA0C0131440329114603D26B
:103E30001146FFF74ABC00BF514501F1010238BFEE
:103E400081F80090524538BF82F800908A1C524594
:103E500038BF82F80090CA1C5245A0F1040038BF58
:103E600082F80090844501F10401E5DBFFF72DBCE9
:103E70000399049B002948BFD94331B10146002270
:103E8000504528BFAAF101010A70C01A05B0BDE86B
:103E9000F08F00BF284E554C4C2900000020704781
:103EA00000207047002070470020704780B540F226
:103EB000F80044F20041C2F20000C4F20001002305
:103EC0004FF00C0C4FF4E13280E80E00C0E90333F0
:103ED000C0E905C3C361FDF7C3F908B1FEE700BF40
:103EE000002080BDF1EE100A4FF6FF71C0F2C03124
:103EF00020EA010040F04070E1EE100A7047000037
:103F00000000000000000102030406070809000089
:103F10000000010203040000010002000100030090
:103F20000100020001000400010002000100030082
:103F30000100020001000500010002000100030071
:103F40000100020001000400010002000100030062
:103F50000100020001000600010002000100030050
:103F60000100020001000400010002000100030042
:103F70000100020001000500010002000100030031
:103F80000100020001000400010002000100030022
:103F9000010002000100070001000200010003000F
:103FA0000100020001000400010002000100030002
:103FB00001000200010005000100020001000300F1
:103FC00001000200010004000100020001000300E2
:103FD00001000200010006000100020001000300D0
:103FE00001000200010004000100020001000300C2
:103FF00001000200010005000100020001000300B1
:1040000001000200010004000100020001000300A1
:104010000100020001006D61696E00686172642038
:104020006661756C74206F6E2068616E646C657279
:104030000D0A0D0A0068617264206661756C742057
:104040006F6E207468726561643A2025730D0A0DE5
:104050000A0046505520616374697665210D0A0097
:104060007230303A203078253038780A007230319A
:104070003A203078253038780A007230323A2030D1
:1040800078253038780A007230333A20307825307D
:1040900038780A007230343A203078253038780A7F
:1040A000007073723A203078253038780A000000AA
:1040B000A93E0008A13E0008AD3E00089D3E000854
:1040C000A53E0008E8400008000000204000000075
:1040D000C40100082841000840000020A04600005C
:1040E000E0010008000000000100000010000000D6
:1040F0000024F40001000000100000201000002047
:1041000078000000020000002000002020000020B5
:10411000200000000A0000003000002030000020D5
:084120002C000000000000006B
:040000050800018965
:00000001FF
