:020000040800F2
:10000000E80E0020290200083F12000849030008FA
:100010003D1200085D050008AF1600080000000052
:100020000000000000000000000000003B0200088B
:100030005F05000800000000970200087B1300081D
:10004000430200084302000843020008430200087C
:10005000430200084302000843020008430200086C
:10006000430200084302000843020008430200085C
:10007000430200084302000843020008430200084C
:10008000430200084302000843020008430200083C
:10009000430200084302000843020008430200082C
:1000A00043020008A91400084302000843020008A4
:1000B000430200084302000843020008430200080C
:1000C00043020008430200084302000843020008FC
:1000D00043020008430200084302000843020008EC
:1000E00043020008430200084302000843020008DC
:1000F00043020008430200084302000843020008CC
:1001000043020008430200084302000843020008BB
:1001100043020008430200084302000843020008AB
:10012000430200084302000843020008430200089B
:10013000430200084302000843020008430200088B
:10014000430200084302000843020008430200087B
:10015000430200084302000843020008430200086B
:10016000430200084302000843020008430200085B
:100170004302000843020008430200080000000098
:10018000430200084302000800F002F800F03CF8C7
:100190000AA090E8000C82448344AAF10107DA45E2
:1001A00001D100F031F8AFF2090EBAE80F0013F0F8
:1001B000010F18BFFB1A43F001031847682600001F
:1001C00088260000103A24BF78C878C1FAD85207B0
:1001D00024BF30C830C144BF04680C6070470000C1
:1001E0000023002400250026103A28BF78C1FBD840
:1001F000520728BF30C148BF0B6070471FB502F0DF
:1002000023FA1FBD10B510BD00F06AF91146FFF7C3
:10021000F5FF00F09EF900F088F903B4FFF7F2FF54
:1002200003BC00F08FF900000948804709480047E7
:10023000FEE7FEE7FEE7FEE7FEE7FEE7FEE7FEE796
:10024000FEE7FEE704480549054A064B70470000F3
:100250009914000889010008E8080020E80E002031
:10026000E80A0020E80A0020EFF3108072B6704719
:1002700080F310887047424A1368012B04D04FF076
:10028000010313603F4A10603F4A11603F484FF03E
:10029000805101607047EFF3108272B638480168F0
:1002A00051B34FF0000101603648016891B1EFF39E
:1002B00009811EF0100F08BF21ED108B21E9F00F0E
:1002C0004FF000041EF0100F08BF012441F8044D48
:1002D000006801602C490968096808C9B1E8F00F95
:1002E000002B18BFB1EC108B81F309884EF0100E73
:1002F000002B18BF2EF0100E82F310884EF0040E63
:10030000704721490860EFF3148222F0040282F35F
:1003100014881C494FF00000086019494FF0010093
:1003200008601B481B49D0F8002041EA0201016027
:1003300016484FF08051016017480068006880F34C
:10034000088861B662B670471EF0040F0CBFEFF369
:100350000880EFF3098020E9F00F40F804ED40F841
:1003600004ED1EF0040F0CBF80F3088880F30988A9
:1003700000B501F041FB5DF804EB4EF0040E704750
:10038000D8080020CC060020D406002004ED00E0B0
:1003900020ED00E00000FFFF08ED00E053EA020C52
:1003A00000F069802DE9F04B4FF00006002B1FBFD5
:1003B000B3FA83F503FA05F424FA05F65E4012BF9A
:1003C0001643B2FA82F502FA05F4C5F120051EBF04
:1003D00022FA05FC44EA0C04203556EA044C4FEAA4
:1003E000144418BF641C4FF000084FF000099042FD
:1003F00071EB030C39D3002919BFB1FA81F701FA67
:1004000007F6B0FA80F700FA07F6C7F120071EBF1B
:1004100020FA07FC46EA0C062037B6FBF4FCA7EBF3
:100420000507103F07F01F0BCBF120062CFA06F64C
:100430000CFA0BFB44BFB3460026202FA4BF5E4638
:100440004FF0000B5BEA060C08BF4FF0010B19EBF5
:100450000B0948EB0608ABFB027C06FB02CC0BFB4E
:1004600003CCC01B71EB0C01C1E70B4602464146B1
:100470004846BDE8F08B13B5084318BF4FF0FF3076
:100480000146AFF30080BDE81C4070474FF000020A
:1004900000B5134694469646203922BFA0E80C507A
:1004A000A0E80C50B1F12001BFF4F7AF090728BF55
:1004B000A0E80C5048BF0CC05DF804EB890028BFD1
:1004C00040F8042B08BF704748BF20F8022B11F0FA
:1004D000804F18BF00F8012B704770477047704776
:1004E000754600F02BF8AE4605006946534620F0ED
:1004F0000700854618B020B5FFF7A4FEBDE82040F0
:100500004FF000064FF000074FF000084FF0000BCF
:10051000AC46ACE8C009ACE8C009ACE8C009ACE83E
:10052000C00921F007018D46704710B50446AFF3AE
:1005300000802046BDE81040FFF76FBE00487047BE
:100540004000002001491820ABBEFEE72600020053
:10055000704780B502F036F8002080BDFEE7704796
:10056000EFF3108072B6FEE72DE9FC4F5D4A0824D8
:100570004FF0010B4FF000094FF0000A90425A4A29
:1005800008BF072402444FEAB223072B38BF4FEAC3
:10059000B22400940022102A08BFBDE8FC8F0F6827
:1005A0000BFA02F6374200F09780D1F8048003235B
:1005B00003FA0AF708F0030CFF43ACF1010EBEF199
:1005C000010F0ED88468CD683C4005FA0AF52C432B
:1005D0008460C8F3001445689440B5432C434460DC
:1005E00005E0BCF1030F02D14FF0030C20E0C4681A
:1005F0008D683C4005FA0AF52C43BCF1020FC4603B
:1006000016D109F01C0E0F2303FA0EFC6FF0030342
:1006100003EA520505442C6A24EA0C0C0C6904FA1E
:100620000EF444EA0C042C62D1F8048008F0030CA8
:1006300005680CFA0AF43D402C4318F4403F04606E
:100640004AD0002322F003070193634B1C6844F453
:1006500080441C601C680F2304F48044019409F05A
:100660000C0403FA04FC214B019D9E461F44214BC0
:10067000FD589846009B25EA0C0503FA04F42C4328
:1006800047F80840DEF808404F68FB0244EA0605D8
:10069000174B58BF24EA0605CEF80850BD029C4609
:1006A0001B6843EA060458BF23EA0604CCF800405E
:1006B000BD03DEF8043043EA060458BF23EA06040B
:1006C000CEF80440FD03DEF8003043EA060458BFCC
:1006D00023EA0604CEF8004009F104090AF1020AEF
:1006E000013258E7001C02400000FEBF003C014000
:1006F0000C3C014008FCFFFF002A08BF090481618F
:100700007047000006480068704700BF034804496E
:1007100000780A6810440860704700BF000000209D
:10072000E008002080B50B48016841F400710160C9
:10073000016841F480610160016841F480710160E9
:10074000032000F0A3F80F2000F006F800F04CF8AA
:10075000002080BD003C024070B586B004460025F4
:100760001D480195016841F001010160694600687A
:1007700000F001000190019801A800F021F900F0BB
:1007800049F9184E1549164B40F2E732B0FBF6F026
:100790008D61C1E902520D610138C1E9003008469E
:1007A00000F020FB054698B90C4800F02BFB0546ED
:1007B00070B9192000F034F80F2C08D81920214600
:1007C0000022002500F03CF87C48046000E0012590
:1007D000284606B070BD00BF443802400401002026
:1007E0000000014040420F0082B000200B49019000
:1007F0004A6842F480424A604A6802F480420192A8
:10080000019A0090086840F080500860086800F085
:1008100080500090009802B0704700BF40380240FE
:10082000002809D4734600F02EFD9E46034A42EA92
:10083000D00020F003000160704700BF00E100E03D
:10084000F0B5184B4FF0FF361C68C4F30224E51EC8
:1008500084F0070438BF002506FA05F7BA43042CD4
:1008600028BF042406FA04F4A14300F00F04A940B1
:10087000043C1143044A234409010244002848BFB0
:1008800003F10C021170F0BD00E400E005494FF6E1
:10089000FF030A681A4060F30A2203481043086005
:1008A000704700BF0CED00E00000FA052DE9F041B3
:1008B000002857D03F4B04468846D3F8000400F088
:1008C0000700884204D283F8008400F0CCFC49D1B0
:1008D0002068810711D5410703D5996841F4E0519B
:1008E0009960010703D5996841F460419960A16856
:1008F0009A6822F0F00211439960C0072BD100F0F2
:10090000B2FC04D983F8008400F0ADFC2AD1206841
:10091000410705D5E1689A6822F4E05211439960D5
:10092000000706D52069996821F4604141EAC000BA
:1009300098601C4600F07EF8A1681F4AC1F30311BD
:10094000515CC840384908601C480068FFF704FF44
:100950000020BDE8F0816068811E022905D2196877
:10096000890107D40120BDE8F08101281DD1196853
:100970008903F7D599681D4621F003010843986063
:10098000FFF7C0FE064641F288376068A9682B462B
:1009900001F00C01B1EB800FB1D0FFF7B3FE801B6B
:1009A000B842F2D90320BDE8F08119688907D9D58A
:1009B000E0E700BF00380240622600080400002083
:1009C00010B50F224FF4E0540260184A136803F088
:1009D00003034360136803F0F0038360136803F4B8
:1009E000E053C360136804EAD3030361D2F8F80349
:1009F00000F00700086010BD0B480068704700BF9A
:100A000009480A490A4A00680968C1F38221515C11
:100A1000C840704704480549054A00680968C1F3A1
:100A20004231515CC840704708000020083802403D
:100A30007226000810B5134C606800F00C000828FE
:100A400004D0042814BF1048104810BD2268206844
:100A50000023400202F03F020C485CBF42F200401B
:100A6000C0F2F4002168C1F38811A0FB0101FFF777
:100A700095FC21680222C1F3014102EB4101B0FB68
:100A8000F1F010BD043802400024F40040787D01EC
:100A90002DE9FC41002860D004460078C34EC00711
:100AA0000BD0B06800F00C00042840F08F80306854
:100AB000800302D5606800284FD02078800718D5C1
:100AC000B06810F00C0F07D000F012FC40F09680D8
:100AD0007068400200F192803068800702D5E068BB
:100AE00001283AD12069316821F0F80141EAC000BB
:100AF00030602078000733D42078400743D4A769BA
:100B000047B300F0F5FB40F0AA80012F25D0E16942
:100B1000706800F480028A421FD1216A00F03F020F
:100B20008A421AD147F6C071626A0140B1EB821F56
:100B300013D1A16A4FF6FF72C903914300F440320A
:100B4000A1F580318A4208D1E16A00F07060B0EB13
:100B5000016F02D10020BDE8FC810120BDE8FC81CD
:100B60006169934800296AD00121C0F8801EFFF70F
:100B7000C9FD0546706F8007BED4FFF7C3FD401B5B
:100B80000228F7D9C9E0306C10F080580AD1002053
:100B90000190306C40F080503064306C00F0805038
:100BA00001900198834F3868C0053AD4386840F402
:100BB00080703860FFF7A6FD05463868C00530D460
:100BC000FFF7A0FD401B0228F7D9A6E000F090FB3C
:100BD00003D1706840023FF56AAF6068B0F5803FAE
:100BE00007D0B0F5A02F40F08280306840F480201C
:100BF0003060306840F48030306082E0E068002887
:100C00004CD06B4801210160FFF77CFD0546306840
:100C100080073FF567AFFFF775FD401B0228F6D947
:100C20007BE0A068012805D0052848D1306F40F04E
:100C300004003067306F40F00100306749E0002168
:100C4000C0F8801EFFF75EFD0546706F80077FF5D8
:100C500053AFFFF757FD401B0228F6D95DE054491A
:100C6000002088460866FFF74DFD0546022F0AD191
:100C700047463068800153D5FFF744FD411B0320F0
:100C80000229F6D967E7306880017FF563AFFFF787
:100C900039FD411B03200229F5D95CE744480021B6
:100CA0000160FFF72FFD0546306880077FF521AF13
:100CB000FFF728FD411B03200229F5D94BE7316FCF
:100CC000002821F001013167316F21F00401316703
:100CD00045D0FFF717FD054641F28837306F800792
:100CE0004CD4FFF70FFD401BB842F7D915E031682F
:100CF000002821F480313160316821F48021316095
:100D000045D0FFF7FFFC0546306880033FF5D5AEC0
:100D1000FFF7F8FC401B6428F6D90320BDE8FC81EE
:100D20001C341FCC0843D90340EA82104FF6FF72EF
:100D3000914340EA0460A1F58031084370600120CE
:100D40003866FFF7DFFC0446306880013FF502AFEC
:100D5000FFF7D8FC011B03200229F5D9FBE6FFF7BA
:100D6000D1FC054641F28837306F800706D5FFF782
:100D7000C9FC411B0320B942F6D9ECE6B8F1000FDB
:100D80007FF4BDAE306C20F080503064B7E6FFF7E2
:100D9000B9FC0546306880037FF58FAEFFF7B2FCE3
:100DA000411B03206429F5D9D5E600BF0038024075
:100DB0000000474200700040411E0020B0EB116F60
:100DC0001CBF01207047044AF023516003490B7097
:100DD000072190601160704710E000E023ED00E013
:100DE0007047704758B110B500F0A1FA03D100F078
:100DF00084FA00F006F800F0B9FA00F04BBA0120CE
:100E00007047704790F83D1001291CBF01207047C2
:100E1000022180F83D100068C168B0F1804F41F0B8
:100E20000101C16014D01049884211D00F49884295
:100E30000ED00F4988420BD00E49884208D05F4936
:100E4000884205D00C49884202D00C49884204D11E
:100E5000724600F03BFA964603D0724600F031FA33
:100E600096460020704700BF000400400008004084
:100E7000000C004000180040004001400004014008
:100E8000704710B5044600680169890712D5C1682A
:100E900089070FD56FF00201016101212177806977
:100EA000800702D000F04CFA01E000F02BFA00209D
:100EB000207720680169490713D5C168490710D513
:100EC0006FF00401016102212177806910F4407FF5
:100ED00002D000F035FA01E000F014FA002020778B
:100EE00020680169090712D5C16809070FD56FF09D
:100EF0000801016104212177C069800702D000F058
:100F00001FFA01E000F0FEF9002020772068016957
:100F1000C90613D5C168C90610D56FF0100101616B
:100F200008212177C06910F4407F02D000F008FA50
:100F300001E000F0E7F90020207720680169C90787
:100F400009D0C168C90706D06FF0010101612046D0
:100F500000F02CF820680169090609D5C168090666
:100F600006D56FF0800101612046FFF739FF206848
:100F70000169490609D5C168490606D56FF04001E7
:100F80000161204600F01CF820680169890602D53D
:100F9000C168890600D410BD6FF0200101612046B0
:100FA000BDE81040FFF71DBF704770470068034958
:100FB000884208BFFFF7AABB704700BF000001408E
:100FC000704790B110B5044690F83D0008B900F0A4
:100FD000BAF900F0A1F92068016921F4904101619A
:100FE000416921F02A0100F0B4B9012070470000E6
:100FF00010B586B0044601A81421FFF747FA20680F
:101000008D4988421BD0844988423ED100207949CD
:1010100000904A6942F010024A614A6902F01002E7
:101020000092009A0090086840F00200086008688A
:10103000C02100F0020000900098154819E000203F
:101040006C4900900A6942F400320A610A6902F4AC
:1010500000320092009A0090086840F00800086092
:101060000868602100F0080000900098084800F52A
:1010700000600722059203220492002203920222BA
:10108000CDE9011201A9FFF76FFA06B010BD00BF4C
:10109000000402402DE9F843044690F83D00202862
:1010A00006D10D4639B116462AB100F018F905D11E
:1010B0000220BDE8F8830120BDE8F88300209946AE
:1010C0002064012084F83C00212084F83D00FFF7D3
:1010D00019FBE6848046A684A068B0F5805F01D144
:1010E000206910B100262F4601E000272E4600207F
:1010F00084F83C00E08CA8B12046802100F0EBF899
:10110000A8B927B117F8010B2168486006E036F846
:10111000021B206800276FF35F214160E08C0138DB
:10112000E084E7E72046402100F0D5F810B1032025
:10113000BDE8F883202084F83D000020BDE8F88356
:101140002DE9F04387B000272A4800224FF440667B
:1011500006970197016841F001010160016801F003
:10116000010100F06DF841F002010160016801F039
:10117000020100F065F841F008010160016801F02A
:10118000080100F05DF841F480710160016801F42C
:10119000807100F055F841F0800101604FF440612A
:1011A000006800F0800001900198134800F5806508
:1011B00081462846FFF7A0FA48464FF480510022A6
:1011C0004FF48058FFF798FA0124CDE904772846B8
:1011D000CDE9026402AE3146FFF7C6F94846314612
:1011E000CDE90477CDE90284FFF7BEF907B0BDE889
:1011F000F08300BF30380240001C024010B50548A3
:10120000054C00F022F818B1BDE81040FFF7A8B96E
:1012100010BD00BF4C0100200010014010B5054872
:10122000054C00F012F818B1BDE81040FFF798B96E
:1012300010BD00BF9001002000440040FEE7FEE723
:101240000191019901970168704700210C224FF428
:10125000E133C0E90043C0E90211C0E90412C0E96A
:101260000611FFF7AEBED3F8000400F007004045BA
:101270007047206850E8050F216820F0010041E820
:101280000502002A704700F01F010122C0B202FAD5
:1012900001F17047012084F8460084F83E0084F88C
:1012A0003F0084F8400084F8410084F8420084F84C
:1012B000430084F8440084F8450084F83D00002091
:1012C00010BD016841F0010101607047816801F0C3
:1012D00007010629704742464B4600F0BBB994F817
:1012E0003C0001287047206850E8030F21687047D0
:1012F000B06800F00C0008287047002084F83C001B
:10130000204670474DF808ED2046FFF74DFE204679
:101310005DF808EBFFF749BE242084F83D00206803
:10132000C16821F40051C160204600F02FB9044685
:1013300090F83D000028704741E80302002A7047FA
:101340002046FFF79DBD002084F83C002046FFF7B3
:101350004FBE4161C16841F40051C16000202021AD
:10136000206484F83D1084F83E1010BD0220211D39
:1013700084F83D00206800F09DB880B500F010FCB6
:1013800000F0CAFEBDE8804000F016BC70B592B017
:1013900006AC1421201DFFF779F801A81421FFF7EE
:1013A00075F800251F4802260095016841F080511C
:1013B0000160006800F080500090009800951A4885
:1013C000016841F480410160006800F480400090B1
:1013D00004201096CDE90C650696119040200F90E0
:1013E00008200E9010200A900120099000982046B5
:1013F000FFF74EFB18B1EFF3108072B6FEE74FF423
:10140000805005950221CDE903500F20CDE901065A
:1014100001A8FFF74BFA18B1EFF3108072B6FEE7A0
:1014200012B070BD4038024000700040154841685D
:1014300001F00C021449082A03D0042A17D11349D9
:1014400015E002685202114A58BF0A460168022399
:1014500001F03F01B2FBF1F10268C2F3881251437F
:101460000268C2F3014203EB4202B1FBF2F1084A07
:10147000084B11604068C0F30310185C21FA00F0BB
:1014800010607047043802400024F40040787D0169
:1014900008000020622600080248016841F470013B
:1014A0000160704788ED00E00148FFF7EABC00BF2B
:1014B0000401002070B52A4A0368904234D0B0F18C
:1014C000804F0BD0274CA04208D0274CA04205D01B
:1014D000264CA04202D0264CA04203D14C6823F0F7
:1014E00070032343B0F1804F22D01E4CA0421FD086
:1014F0001D4CA0421CD01E4CA04219D01D4CA04235
:1015000016D01D4CA04213D01C4CA04210D0174C3A
:10151000A0420DD01A4CA0420AD01A4CA04207D0CB
:10152000194CA04204D007E04C6823F07003234319
:10153000CC6823F4407323434E6923F080030C6886
:101540008D68334390420360C562846203D002F524
:101550008062904201D1096901630121416170BD3E
:101560000000014000040040000800400004014069
:10157000000C004000180040001C0040002000400B
:10158000004001400048014000440140B0B504461D
:10159000006804F108030ECB056925F44055194392
:1015A0002A4349F20C650261C26863691943E36921
:1015B000AA4319431143C1604169A26921F44071F2
:1015C00011434161214940F48060884202D1FFF714
:1015D00021FA01E0FFF714FAE26919216368A0FB20
:1015E0000101B2F5004F17D15A00DB0FFEF7D6FE0E
:1015F000174B6421B0FBF1F203F1805302FB0300AF
:10160000322303EBC000B0FBF1F04FF4F87101EAB4
:10161000400100F0070012E09A009B0FFEF7BEFEAB
:1016200064210B4BB0FBF1F202FB0300322303EB0E
:101630000010B0FBF1F000F0F00100F00F0001EB42
:101640000211084421688860B0BD00BF0014014049
:101650009CFFFF0F2DE9F0411D4690460F460446C2
:101660005E1C206800683840B8421DD0002EF8D0BB
:101670002DB1FFF747F8A0EB0800A842F1D9FFF71A
:1016800032FE20F4D070FFF757FEF8D1FFF7F1FDDE
:10169000FCD12020002184F83D0084F83C1084F81F
:1016A0003E000320BDE8F0810020BDE8F081FEE7A8
:1016B00018B1C1B219B101200EE00020704710F43A
:1016C0007F4102D0090A092006E010F47F0107BF1C
:1016D000010E1920090C1120014A515C0844704781
:1016E0007A260008B0B50546FEF7BEFD296F044610
:1016F00009B1284688472046BDE8B040FEF7B8BD8E
:10170000FFF710F8FFF742FEFFF71AFDFFF776FD2F
:10171000FFF784FDFEE780B500F000F9BDE88040EA
:10172000FFF7EEBF2DE9F04F88B0DDF84CE05FA683
:101730004FF0300B94465FEA4E6457A458BF2646DC
:101740005FEACE6448BF2EF0010E5FEACE7408BF98
:101750004FF0200B5FEA8E74DDE9114906D40022B8
:101760004FF001080192002200921BE0BCF1FF3F04
:1017700007DD5FEA4E750FD45FEA0E75EFD52022C4
:101780000BE00122CDF80CE0CCF1000C019200221C
:1017900002922D2200920AE02B2200924FF00008C4
:1017A00001220192BCF1000F20D0CDE9028E00276A
:1017B0000A250DF11008BCF1000F13D0BCFBF5F2A7
:1017C0000CF00F0E0A2B02EB820A08BFACEB4A0E9C
:1017D00016F80E4008F8074018BF4FEA1C120137F0
:1017E0009446E8E7DDE9028E119C03E030220127F0
:1017F0008DF810204F454B46C8BF3B46E21A1EF0FD
:10180000110F10D10024002AC8BF0124019D2C40D3
:101810002025121B012A05DB884238BF0570013ADA
:101820000130F7E7013AB8F1000F05D188423CBF1B
:10183000009C04700130013A5FEACE6409D4012AA9
:1018400006DB884238BF80F800B0013A0130F6E785
:10185000013A30259F4205DA884238BF0570013BC6
:101860000130F7E704ABB9F1000F10D0002F0EDD07
:10187000884203D2DC1914F8014C0470013F013096
:10188000F1E788423CBF20230370013A0130012A6E
:10189000F7DA08B0BDE8F08F3031323334353637FF
:1018A00038396162636465660000000030313233AC
:1018B000343536373839414243444546000000004C
:1018C0001FB514200B4C0E4A0BA1002303900A20D5
:1018D00002904FF48060019005480090204600F08F
:1018E0005DFB204604B0BDE8104000F0BBBB00BF6C
:1018F00050020020500600206D61696E000000005B
:1019000017170008B0B5044C094DAC4228BFB0BD54
:1019100001CC8047F9E700BF14280008B0B5044C9B
:10192000044DAC4228BFB0BD01CC8047F9E700BFF1
:101930001C2800082028000880B5FEF795FCFA490D
:101940004A8801324A80BDE88040FEF791BC00BF62
:1019500010B5FEF789FCF44C61880139618009B249
:10196000002903DDBDE81040FEF782BC0021618044
:10197000FEF77EFC606818B1BDE8104000F0AEB91B
:1019800010BD00BF80B5FEF7CDFEFFF7FFFCFFF7EF
:101990004DFDFFF731F84FF47A71B0FBF1F0FFF72E
:1019A0000BFABDE88040FFF7ADBF0000F8B5114D60
:1019B0000446002085F83C000D208DF803002046E9
:1019C00000F04EFA06460DF103078EB120780A2882
:1019D00005D12846394601220123FFF75BFB284643
:1019E000214601220123FFF755FB0134013EECE7BC
:1019F000F8BD00BFC0000020B0B50446264801680D
:101A000021B104F128008847002844D0616C2348A4
:101A1000234DA847A16A2348A847E16A2248A8475E
:101A2000216B2248A847616B2148A847A16821483B
:101A3000A847E16820A0A847216923A0A8476169B9
:101A400025A0A847A16928A0A847E1692AA0A8471E
:101A5000216A2DA0A847616A2FA0A847A16B32A0D8
:101A6000A847E16B34A0A847216C37A0A84720788D
:101A7000400703D4394800F0ABF805E000F0EEFA77
:101A80000146354800F0A4F82078C00602D4344856
:101A900000F09EF8FEE7B0BDC80600200028000850
:101AA000D11B0008BF270008CC270008D927000851
:101AB000E6270008F32700087230353A20307825F1
:101AC0003038780A000000007230363A203078252D
:101AD0003038780A000000007230373A203078251C
:101AE0003038780A000000007230383A203078250B
:101AF0003038780A000000007230393A20307825FA
:101B00003038780A000000007231303A20307825F1
:101B10003038780A000000007231313A20307825E0
:101B20003038780A000000007231323A20307825CF
:101B30003038780A00000000206C723A2030782596
:101B40003038780A000000002070633A2030782591
:101B50003038780A00000000942700087A2700082F
:101B6000B127000870B50446101D0C4E6FF04305F8
:101B700020F00702A2F1440015B156510435FBE7ED
:101B800000254FF0807642E9081542E9065542E902
:101B9000045342E9024642F8445C70BDEFBEADDE3C
:101BA00080B5FEF761FB61490A7801320A70BDE831
:101BB0008040FEF75DBB00BF80B5FEF755FB5B497B
:101BC0000A78013A0A70BDE88040FEF751BB00BFB9
:101BD00083B0B8B5044605A8074D0EC005AB7F21FC
:101BE00022462846009300F097FB2846FFF7DEFECA
:101BF000BDE8B84003B07047D806002010B5042AED
:101C000015D310F0030312D1CBB24FF001345C4373
:101C100003460F2A08D9C3E90044C3E90244103A35
:101C20001033F6E710C3043A042AFBD204E003465B
:101C300002E003F8011B013A002AFAD110BD10B5E9
:101C4000044600202072FEF70FFB54F80C1F626858
:101C50004A6062681160C4E90044BDE81040FEF7C4
:101C600007BB000008496FF03F0212F1100304BFE8
:101C7000002070470A4492F8402082421A46F4D16C
:101C8000C8183030704700BF0C000020F8B504467B
:101C9000084615460E46FFF7E5FF0746FFF74CFEE0
:101CA000043738460068B842FCD1FFF751FE46F0D1
:101CB0008000294608222072204600F0D8F8FEF75E
:101CC000D3FA396844F80C1F4C603C606760BDE88B
:101CD000F840FEF7CDBA007AC0097047B0B5FEF7FC
:101CE000C3FA814D0446688820B12046BDE8B04063
:101CF000FEF7BEBAA868FFF7DBFC7C4901386A68CA
:101D000051F83010A1F114039342EED0287002F183
:101D10001C00064A6B600831127812B1FEF7ABFA6C
:101D2000E3E7FEF7A8FAE0E7A0000020D0060020D5
:101D3000F8B50446FEF798FA94F83520F34B6A4E4E
:101D400094F8341004F1140503EBC202B76801F0F3
:101D5000F0015368013184F83410A3611D60A36B56
:101D6000556062613B43B360BDE8F840FEF780BA5E
:101D700010B50446FEF778FA214651F8142F4B6847
:101D800053604B681A60C1E9001191F82110DF4AD5
:101D900002EBC10352F83110994205D1524AA16BAE
:101DA000936823EA01019160BDE81040FEF760BA34
:101DB0001CB50B4C07A0A0470AA0A04712A0032106
:101DC00001220523009013A0A0471AA02146BDE8D8
:101DD0001C4008470A205C207C202F0A00000000DD
:101DE000D11B00082D205254202D202020202054CB
:101DF0006872656164204F7065726174696E6720F6
:101E000053797374656D0A004E6F7620203120324D
:101E100030323300202F207C205C20202020202501
:101E2000642E25642E2564206275696C64202573F8
:101E30000A0000002032303036202D20323032307F
:101E400020436F70797269676874206279207274B8
:101E50002D746872656164207465616D0A0000000C
:101E60000021425C0131002AFBD1481E7047B0B509
:101E700052B1034604460D7804F8015B2DB1013AD6
:101E800001F101012346F6D1B0BD012100248A42AF
:101E9000FAD05C540131FAE713489C4A0021418092
:101EA000B1F5807F04D0531853505B600831F7E7D9
:101EB0001F220021027000F10C02C0E90111C0E9EB
:101EC0000322704710B5084CA068FFF7F1FB8F495B
:101ED00001EBC00050F8080CA0F11401083061605B
:101EE000BDE81040FEF70DBAA00000205807002002
:101EF000BC48011DC0E90111704700BF70470000D8
:101F0000B0B581480568FEF7AFF904462846FFF7EB
:101F1000E9FB2846FFF72CFF042085F8340005F183
:101F2000440000F063F92846FFF7D5FE012803D1ED
:101F30002846FFF784FE06E00648016845F8141FAE
:101F40004D6005606860FFF7C9FE2046BDE8B040FF
:101F5000FEF78EB9AC000020FEE700001FB5202080
:101F60000A4C0D4A0AA1002303901F2002908020F2
:101F7000019005480090204600F010F8204604B07B
:101F8000BDE8104000F06EB858080020D4010020D1
:101F90007469646C65000000591F00087CB5164622
:101FA0000A4601211D460446FFF770FE079A06986F
:101FB00004F11401C4E90865C4E905112321E262B2
:101FC000A062FFF71BFE04F120030FCB1A440F4B56
:101FD000043AFFF7C7FD0899E061099800222346FB
:101FE000C4E91C2284F83420226384F8361084F873
:101FF0003510C4E90E202064CDE90022044A04F122
:102000004400214600F00AF900207CBD011F0008B1
:1020100091200008B0B5044690F8340000F00F009D
:1020200002281CBF4FF0FF30B0BDFEF71DF921465E
:102030000546A06951F8142F5060A069A1610260A3
:1020400004F14400096000F04BF92846FEF710F94E
:102050002046FFF76DFE0020B0BD00002A48006852
:10206000704700BF80B50221012280F8341090F83B
:10207000361080F8351002FA01F18163FFF7CAFFCC
:102080002148006808B1FFF729FE002080BD00BF8D
:1020900080B50246816952F8143F596081698261B6
:1020A0000B606FF0010112600163FFF741FEBDE8B4
:1020B0008040FFF713BE000010B5FEF7D5F81249B7
:1020C000096891F8342002F00F02012A18D10A465B
:1020D00052F8143F5468A34212D05C608C698A6144
:1020E000236091F83530094C04EBC3035C6822602F
:1020F000C1E905345A60FEF7BBF8FFF7EFFD01E0D8
:10210000FEF7B6F8002010BDA400002058070020FC
:102110000B480068704700BF80B50948016801316D
:102120000160FFF79BFF016C0139016403D1C16BB2
:102130000164FFF7C1FFBDE8804000F003B800BFB5
:10214000DC0800202DE9FE4301AECDE90166FFF772
:10215000DFFF0546FEF788F8804623485F4F81463B
:10216000384650F8044F844236D060694946281AF0
:10217000484531D8D4E9000141606168086014F82D
:102180000B0C246081075CBF00F0FE0004F80B0C10
:1021900001984460C4E90006D4E90210019488471C
:1021A000FFF7B6FF05460198B042D9D0D4E9000147
:1021B00041606168086014F80B1CC4E9004488079A
:1021C000CED5C807CCD0A4F1140001F0FE0104F86C
:1021D0000B1C00F03BF8C3E74046FEF749F8BDE8AA
:1021E000FE8300BFB4000020FEFFFF7F10B5044651
:1021F000FEF73AF82246A16952F8143F5960A169E6
:10220000A2610B60617A126001F0FE016172FEF75B
:102210002FF82046FFF713FD002010BD70B51546BE
:102220000A460A211C460646FFF730FD0020C6E993
:102230000754B062059800F0FE0070720498706256
:1022400006F11400C6E9050070BD00002DE9F0415B
:102250000446FEF709F82646804656F8140F7168C2
:1022600041607168086016F80B0CC6E9006600F062
:10227000FE0006F80B0CFFF74BFF3169DFF85CC07E
:1022800001256FF000470144DCF808000CF104025E
:102290007161EB070ED0824209D01346126855696E
:1022A0006D1AF8D0BD42F6D200251A46F1E7002596
:1022B0000246EEE7106860614660DCF800001660D8
:1022C000A2610130CCF80000607A40F00100607239
:1022D0004046FDF7CDFF0020BDE8F081B4000020AE
:1022E00010B50446407AC00704BF4FF0FF3010BD60
:1022F000FDF7BAFF54F8141F62684A606268116003
:1023000014F80B1CC4E9004401F0FE0104F80B1C96
:10231000FDF7AEFF002010BD2DE9F04F87B0451846
:10232000994606460DF1180A4FF0200B06920491CB
:10233000002948BF4FF0FF3505901078252807D0B9
:10234000002800F02281AE4200D23070013607E151
:10235000511C4FF000080878202809D0232809D004
:10236000302809D02D2809D02B280CD1042006E0D4
:10237000082004E0202002E0012000E0102048EACC
:1023800000080131E7E7A0F130020691092A05D8DB
:10239000504600F02CF9069904460EE02A280AD18E
:1023A0000131069159F8044BB4F1FF3FDCBF48F00E
:1023B0001008644201E04FF0FF340B782E2B0BD154
:1023C0004A1C06924878A0F13003092B07D85046E2
:1023D00000F00DF906990CE04FF0FF3C0CE02A28C4
:1023E00004D10231069159F8040B02E04FF0FF309E
:1023F00011460B7820EAE07C43F004006C2805D1FC
:10240000481C9E4606904F78014602E04FF0000EB1
:102410001F46A7F16F0009280BD9252F44D0582F4C
:1024200047D0692F18BF642F0DD148F002080A2346
:1024300042E00A23DFE800F005175B5B2B5B405BA3
:102440005B3F082338E0632F51D15FEAC86000F199
:102450008C80022CC0F28880AE4238BF86F800B073
:10246000013C0136F5E7601C59F8042B08BF08242D
:102470002946CDE9004CB0FA80F01023400940EA2B
:102480000800C0B202903046FFF74CF967E059F8F7
:10249000041B46A0002908BF014600239C4233D0FC
:1024A000C85C90B30133F9E7AE42BFF44FAF2520CB
:1024B0004BE748F040081023BEF1680F04D0D9F86C
:1024C0000020BEF16C0F05E0B9F800205FEA8870CB
:1024D00048BF12B25FFA88F02946CDE9004C02905D
:1024E0003046FFF71FF9064609F1040938E0AE420D
:1024F00003D22520307006990F78701C6FB3A84264
:1025000038BF077002362BE0234663451A46C8BF22
:102510006246BCF1000FD8BF1A465FEAC86009D412
:10252000A24206DAAE4238BF86F800B0013C01365E
:10253000F6E7013C0023F01893420BDAA8423CBFB7
:10254000CF5C07700133F6E7A84238BF80F800B0CF
:10255000013C0130A242F7DB01E001390691064659
:102560000698421C0692E8E6013CAE423CBFD9F810
:102570000000307009F104090136022CF0DBAE4294
:1025800038BF86F800B0013CF6E70498059A0028A9
:1025900048BFD04328B1AE42304628BF681E002154
:1025A0000170B01A07B0BDE8F08F00BF284E554C3F
:1025B0004C29000000207047002070470020704721
:1025C0000020704780B5FDF74FFEFFF7DBF9FFF7FE
:1025D000EFFBFFF78DFCFFF75FFCFFF771F9FFF7EB
:1025E0008DFCFFF7BBFCFFF76DFC002080BD02688F
:1025F00000211378303B092B84BF08467047531CD9
:1026000001EB81010360127802EB41011A46303977
:10261000EFE7000010B50A480A4C00210C224FF4E5
:10262000E133C0E90043C0E90211C0E90412C0E986
:102630000611FEF7C6FC00B1FEE7002010BD00BF8A
:10264000C000002000440040F1EE100A4FF6FF7178
:10265000C0F2C03120EA010040F04070E1EE100A03
:10266000704700000000000000000102030406079C
:10267000080900000000010203040000010002003C
:10268000010003000100020001000400010002003B
:10269000010003000100020001000500010002002A
:1026A000010003000100020001000400010002001B
:1026B0000100030001000200010006000100020009
:1026C00001000300010002000100040001000200FB
:1026D00001000300010002000100050001000200EA
:1026E00001000300010002000100040001000200DB
:1026F00001000300010002000100070001000200C8
:1027000001000300010002000100040001000200BA
:1027100001000300010002000100050001000200A9
:10272000010003000100020001000400010002009A
:102730000100030001000200010006000100020088
:10274000010003000100020001000400010002007A
:102750000100030001000200010005000100020069
:10276000010003000100020001000400010002005A
:10277000010003000100020001006861726420662C
:1027800061756C74206F6E2068616E646C65720D8B
:102790000A0D0A0068617264206661756C74206FAE
:1027A0006E207468726561643A2025730D0A0D0A03
:1027B0000046505520616374697665210D0A0072E8
:1027C00030303A203078253038780A007230313A8B
:1027D000203078253038780A007230323A2030784C
:1027E000253038780A007230333A20307825303876
:1027F000780A007230343A203078253038780A0070
:102800007073723A203078253038780A0000000062
:10281000C1250008B925000815260008B5250008BF
:10282000BD250008482800080000002040000000E6
:10283000C40100088828000840000020A80E0000FD
:10284000E00100080000000001000000100000008E
:102850000024F400010000001000002010000020FF
:10286000780000000200000020000020200000206E
:10287000200000000A00000030000020300000208E
:082880002C0000000000000024
:040000050800018965
:00000001FF
